:020000040800F2
:10400000901D0020E9410008617000080D6900085A
:10401000D56F00084745000881C100080000000076
:1040200000000000000000000000000031A30008B4
:10403000995B000800000000FD7E0008BDAC000890
:10404000FF410008FF410008FF410008FF41000850
:10405000FF410008FF4100082B600008FF410008F5
:10406000FF410008FF4100082D600008FF410008E3
:10407000FF410008FF410008FF410008FF41000820
:10408000FF410008FF410008FF410008FF41000810
:10409000BDC00008FF410008FF410008FF410008C3
:1040A000FF410008FF410008FF410008FF410008F0
:1040B000F9AC000819AD0008D1AD0008FF410008B7
:1040C000FF410008FF410008FF410008FF410008D0
:1040D000FF41000809B6000871B80008B1B900082E
:1040E000FF410008FF410008FF41000800F002F80E
:1040F00000F05AF80AA090E8000C82448344AAF128
:104100000107DA4501D100F04FF8AFF2090EBAE825
:104110000F0013F0010F18BFFB1A43F001031847FB
:104120005C8D00007C8D00000A444FF0000C10F8FC
:10413000013B13F0070408BF10F8014B1D1108BF25
:1041400010F8015B641E05D010F8016B641E01F8C5
:10415000016BF9D113F0080F1EBF10F8014BAD1C15
:104160000C1B09D16D1E58BF01F801CBFAD505E033
:1041700014F8016B01F8016B6D1EF9D59142D6D38D
:10418000704700000023002400250026103A28BFB5
:1041900078C1FBD8520728BF30C148BF0B607047B9
:1041A0001FB51FBD10B510BD00F0FDF81146FFF79B
:1041B000F7FF08F0C5F800F01BF903B4FFF7F2FFB2
:1041C00003BC00F01FF90000EFF30980704780F393
:1041D00009887047EFF30880704780F308887047BC
:1041E00040BA7047C0BA704708480047FEE7FEE78C
:1041F000FEE7FEE7FEE7FEE7FEE7FEE7FEE7FEE797
:1042000003480449044A054B70470000ED4000088C
:1042100090170020901D0020901900209019002078
:10422000032A40F2308010F0030C00F0158011F8E2
:10423000013BBCF1020F624498BF11F801CB00F8BA
:10424000013B38BF11F8013BA2F1040298BF00F80E
:1042500001CB38BF00F8013B11F0030300F02580CB
:10426000083AC0F0088051F8043B083A51F804CBF2
:10427000A0E80810F5E7121D5CBF51F8043B40F8B8
:10428000043BAFF30080D20724BF11F8013B11F8C3
:1042900001CB48BF11F8012B24BF00F8013B00F807
:1042A00001CB48BF00F8012B704710B5203AC0F091
:1042B0000B80B1E81850203AA0E81850B1E8185027
:1042C000A0E81850BFF4F5AF5FEA027C24BFB1E864
:1042D0001850A0E8185044BF18C918C0BDE81040D5
:1042E0005FEA827C24BF51F8043B40F8043B08BFDE
:1042F0007047D20728BF31F8023B48BF11F8012BA5
:1043000028BF20F8023B48BF00F8012B70474FF050
:1043100000020429C0F0128010F0030C00F01E808F
:10432000CCF1040CBCF1020F18BF00F8012BA8BFA0
:1043300020F8022BA1EB0C0100F010B85FEAC17C61
:1043400024BF00F8012B00F8012B48BF00F8012B17
:1043500070477047704770474FF0000200B5134632
:1043600094469646203922BFA0E80C50A0E80C5095
:10437000B1F12001BFF4F7AF090728BFA0E80C5046
:1043800048BF0CC05DF804EB890028BF40F8042B3F
:1043900008BF704748BF20F8022B11F0804F18BFAC
:1043A00000F8012B7047754600F028F8AE4605006E
:1043B0006946534620F00700854618B020B5FFF740
:1043C0001FFFBDE820404FF000064FF000074FF000
:1043D00000084FF0000B21F00701AC46ACE8C00923
:1043E000ACE8C009ACE8C009ACE8C0098D4670472C
:1043F0000446AFF300802046FFF7DFFE0048704719
:104400003017002001491820ABBEFEE7260002004D
:10441000704700002DE9F04104460F461FB96020A7
:104420003349087002E0612031490870802C0ADAB3
:104430002046E11704EB91718910032202EB810100
:104440002B4A517012E07F2C0DDDFF2C0BDCA4F108
:104450008000C11700EB11710911491C09017F315E
:10446000234A517002E00320BDE8F081002606E0F7
:104470002048815DB01C1E4A1154701CC6B2042E27
:10448000F6DB0F21222008F0E9FB0C221849062058
:1044900000F0DCFE05460DB90120E5E70A2008F032
:1044A0004DF8054605F00400042801D11420DBE78F
:1044B00014220F49002000F0C9FE05460DB9012065
:1044C000D2E70A2008F03AF8054605F0040004286F
:1044D00001D11420C8E7092008F030F8804608F020
:1044E0000808B8F1080F01D10020BDE70420BBE7A0
:1044F000661100202A0F002008B50121082003F0D2
:1045000017FE4020ADF8000002208DF802001420B4
:104510008DF803006946044801F086FE40210248F8
:1045200001F04FFF08BD0000000C014010B502462D
:104530000B460020002103E0545C60404C1CA1B2FB
:104540009942F9DB10BD00BFFEE70146CAB20B126B
:1045500043EA02207047000010B586B004461822D6
:1045600009A16846FFF7A1FE002004F10104608064
:104570004FF01700208034F80129694604F1060045
:10458000FFF74EFE06B010BD4D54322D5552462D4C
:10459000523333302D535A53422056312E3030008F
:1045A00008B50020009015E19048008800F00F0049
:1045B0008F4908700846007800287DD18D48006832
:1045C0008D4908800846008800F030008B4908803B
:1045D0008948008800F44050874908808549096867
:1045E0004BF6BF7201EA020080F4005080F0200018
:1045F00040F4004141F080017E4A11607B48008810
:1046000010F0100F32D11046006848F60F710840C4
:104610001146086002F07CF9764909684BF6BF72D2
:1046200001EA02007449098811F4805F01D080F426
:1046300080507149098811F4005F01D080F4005066
:104640006E49098811F0100F01D080F010006B49FD
:10465000098811F0200F01D080F0200081B241F4D0
:10466000004141F08001634A116008BD6148006863
:1046700080B20090BDF8000010F4006F36D05D48A5
:104680000068C0F30E0048F68F7108405949086071
:1046900006F066F8574909684BF6BF7201EA020056
:1046A0005549098811F4805F01D080F48050524947
:1046B000098811F4005F00E052E001D080F400505E
:1046C0004E49098811F0100F01D080F010004B49BD
:1046D000098811F0200F01D080F0200081B241F450
:1046E000004141F08001434A1160BEE7BDF800007F
:1046F00010F4004F6ED03F480068C0F30E0048F63B
:104700008F7108403B49086002F09AFD39490968F9
:104710004BF6BF7201EA02003749098811F4805F45
:1047200001D080F480503449098811F4005F01D031
:1047300080F400503149098811F0100F01D080F049
:1047400010002E49098811F0200F01D080F02000C0
:1047500081B241F4004141F08001264A116084E7B2
:1047600023480078234951F8200080B20090BDF81A
:10477000000010F4004F14D01D48007851F82000BC
:10478000C0F30E0048F68F71084019490978194A9C
:1047900042F8210016490978491E194A52F82100A9
:1047A0008047BDF8000010F0800F13D0104800784B
:1047B000104951F8200048F60F7108400C4909785B
:1047C0000C4A42F821000A490978491E0D4A52F85C
:1047D0002100804707484430006880B203490880C0
:1047E00010F4004F7FF4E0AE00BF3EE73803002036
:1047F00004040020005C0040180400201A0400207B
:104800001C030020000300202DE9F04106460F465E
:104810001546A84607F038FD1A48007800EB40001E
:10482000194901EBC0004078B0B9424639463046DC
:1048300000F02CF8044604F47F40B0F5C24F02D1DA
:104840002046BDE8F08104F47F40B0F5D84F01D197
:104850002046F6E72046F4E72A463946304600F07F
:1048600085FA044604F47F40B0F5C24F01D12046DA
:10487000E7E704F47F40B0F5D84F01D12046E0E7E8
:104880002046DEE751000020B41200202DE9F04F51
:1048900085B082468B4615465F46BAF1040F02D1B9
:1048A000002003901BE0BAF1050F02D10120039014
:1048B00015E0BAF1050F10DD3C79601D824502D18B
:1048C000022003900BE0A01D824502D1032003903B
:1048D00005E0012005B0BDE8F08F0120FAE74FF0B8
:1048E00000080020019081465F4617F8010BFA4945
:1048F00008800846008805F01BFA17F8010B0090A5
:10490000F549009808800846008805F011FA17F864
:10491000010BF14908800846008805F009FA17F8EC
:10492000010BED4908800846008805F001FA03985C
:1049300030B101280CD0022815D0032828D11BE063
:104940000020E54908800846008805F0F1F921E0DB
:1049500017F8010B0190E04901980880084600888B
:1049600005F0E6F916E017F8018BDB48A0F80080A7
:10497000008805F0DDF90DE017F8018B17F8080045
:104980000190D548A0F80080008805F0D1F901E039
:1049900001209FE700BF0024AE1C00202870687033
:1049A0000BF10507CD480078012802D1CC4807F06B
:1049B00017F9CA480078022802D1CA4807F010F94E
:1049C000C6480078032802D1C74807F009F900BF9C
:1049D00000BF00200290C148007801280BD1C348D5
:1049E000016802A806F01EFD012804D020122870DC
:1049F0006C7012206EE7B948007802280BD1BB48D2
:104A0000016802A806F096FE012804D02012287042
:104A10006C7012205EE7B148007803280BD1B348D0
:104A2000016802A806F026FF012804D02012287091
:104A30006C7012204EE79DF808006028C9D09DF8E0
:104A4000080000F0F000602805D09DF8080000F094
:104A5000F000902863D19DF808909DF8080006F8B2
:104A6000010B601C84B2200A28706C709B4800788F
:104A7000012817D19D48016802A806F0D3FC01283F
:104A80000ED14FF47F4000EA09299DF8080040EA62
:104A900009099DF8080006F8010B601C84B201E0CA
:104AA000122017E78D480078022817D18F48016837
:104AB00002A806F03FFE01280ED14FF47F4000EA25
:104AC00009299DF8080040EA09099DF8080006F840
:104AD000010B601C84B201E01220FBE67F480078E5
:104AE000032817D18148016802A806F0C3FE0128F7
:104AF0000ED14FF47F4000EA09299DF8080040EAF2
:104B000009099DF8080006F8010B601C84B201E059
:104B10001220DFE6200A28706C704846DAE69DF81D
:104B200008000099484005D09DF8080000994840C9
:104B300001286BD1B8F1000F36D06D4909880B39C7
:104B400088B206F0ABF900BF06F0D2F90028FBD11D
:104B500006F02CF9002004900BE017F8010B5E49D9
:104B600008800846008805F0E3F80498401C80B2ED
:104B7000049004984045F0DB58480078012802D1A1
:104B8000574807F02DF855480078022802D15548BB
:104B900007F026F851480078032802D1524807F060
:104BA0001FF84FF0000813E7019870B3002004903D
:104BB0004AE04A480078012812D14C48016802A80E
:104BC00006F030FC012809D19DF8080006F8010B19
:104BD000601C84B2200A28706C7001E0122079E613
:104BE0003E480078022814D14048016802A806F027
:104BF000A1FD01280BD19DF8080006F8010B601CEF
:104C000084B2200A28706C7003E023E023E01220B5
:104C100060E632480078032812D13448016802A8BF
:104C200006F028FE012809D19DF8080006F8010BBE
:104C3000601C84B2200A28706C7001E0122049E6E2
:104C40000498401C80B20490019904988842B0DB1B
:104C500000200190BCE69DF8080000994840FF281C
:104C600005D09DF8080000994840FE2878D1B8F199
:104C7000000F19D01E4909880B3988B206F00EF9C9
:104C800000BF06F035F90028FBD106F08FF817F8C1
:104C9000010B11490880A8F101001FFA80F80846AD
:104CA000008805F045F893E60198A0B10B4800781C
:104CB000012821D10D48016802A806F0B3FB0128A4
:104CC00018D19DF8080006F8010B601C84B2200A78
:104CD00028706C7010E042E0C602002051000020F5
:104CE000003801400044004000480040D00200204D
:104CF000DC0200201220EDE51A480078022812D1CB
:104D00001948016802A806F015FD012809D19DF88F
:104D1000080006F8010B601C84B2200A28706C7031
:104D200001E01220D6E50F480078032813D10E4881
:104D3000016802A806F09EFD01280AD19DF808002E
:104D400006F8010B601C84B2200A28706C7002E027
:104D500006E01220BEE50198401E80B2019037E6C1
:104D600036E6000051000020D00200202DE9F74F68
:104D700084B080469146059CB8F1050F0BDD207983
:104D8000401D40450CD02079801D404508D00120B1
:104D900007B0BDE8F08FB8F1040F01DA0120F7E7A2
:104DA00000270020BE490880084600787840C7B236
:104DB0000846008804F0BCFFBA480078B84908806B
:104DC000B848007808B1002000E04020B5490870DC
:104DD000B34800787840C7B2B148008804F0A8FF13
:104DE000AF48A0F8008000787840C7B2AC4800888F
:104DF00004F09EFF4FF0000A0FE014F8010BA849E1
:104E00000880084600787840C7B20846008804F059
:104E10008FFF0AF101001FFA80FAC245EDDBA048BE
:104E20000780008804F084FF9F480078012802D1A1
:104E30009E4806F0D5FE9C480078022802D19C4886
:104E400006F0CEFE98480078032802D1994806F073
:104E5000C7FE002003900025002709F102064C46FA
:104E60002070607090480078012808D1924801684D
:104E700001A806F0D7FA012801D0122088E78A4855
:104E80000078022808D18C48016801A806F052FC7D
:104E9000012801D012207BE783480078032808D13D
:104EA0008548016801A806F0E5FC012801D0122020
:104EB0006EE79DF8040006F8010B9DF804004740DA
:104EC000681C85B2280A2070657077480078012830
:104ED00008D17A48016801A806F0A4FA012801D097
:104EE000122055E770480078022808D173480168FD
:104EF00001A806F01FFC012801D0122048E76A48EB
:104F00000078032808D16D48016801A806F0B2FCBA
:104F1000012801D012203BE79DF8040006F8010BA0
:104F20009DF804004740681C85B2280A207065700F
:104F30005D480078012808D16048016801A806F0A2
:104F400071FA012801D0122022E757480078022880
:104F500008D15A48016801A806F0ECFB012801D0ED
:104F6000122015E750480078032808D153480168FB
:104F700001A806F07FFC012801D0122008E79DF867
:104F8000040006F8010B9DF8040047409DF804005A
:104F90000390681C85B2280A207065704FF0000BE2
:104FA00036E041480078012808D14448016801A84A
:104FB00006F038FA012801D01220E9E63A480078D4
:104FC000022808D13D48016801A806F0B3FB01287A
:104FD00001D01220DCE634480078032808D1374895
:104FE000016801A806F046FC012801D01220CFE696
:104FF0009DF8040006F8010B9DF804004740681C6A
:1050000085B2280A207065700BF101001FFA80FB41
:1050100003988345C5DB16F8020C02904FF47F41DC
:10502000029801EA002016F8011C084302901E486D
:105030000078012808D12148016801A806F0F2F99A
:10504000012801D01220A3E617480078022808D1D1
:105050001A48016801A806F06DFB012801D0122052
:1050600096E611480078032808D11448016801A881
:1050700006F000FC012801D0122089E69DF804000A
:1050800006F8010B681C85B2280A207065709DF82F
:105090000400874201D013207AE6029878E60000E7
:1050A000C6020020DE02002051000020003801402E
:1050B0000044004000480040D8020020D4020020F4
:1050C00010B5002004F0DCFA17480078012807D159
:1050D000164806F08BFC00214FF4804003F028F8BE
:1050E00011480078022807D1114806F07FFC002102
:1050F0004FF4003002F0FCFF0B480078032807D182
:105100000C4806F073FC00214FF4802002F0F0FF01
:10511000002004F0A3FA0848C06920F00400064902
:10512000C861002010BD000051000020003801407F
:105130000044004000480040001002402DE9F041CA
:1051400007460C461546FFF7BBFF2B4622460121BA
:10515000384604F0BDFA064616B93046BDE8F0817F
:10516000FFF7AEFF2B4622460021384604F0B0FA86
:1051700006463046F2E700000022002104E006481F
:10518000405C4240481CC1B20529F8DB0AB9012045
:1051900070470020FCE700002A0F0020094951F861
:1051A000201011F4804F0BD0064951F8201048F61A
:1051B0008F7211404CF280021143024A42F82010D3
:1051C00070470000005C0040094951F8201011F0C0
:1051D000400F0BD0064951F8201048F68F7211404D
:1051E00048F2C0021143024A42F820107047000002
:1051F000005C004070B5092007F0A0F9044644F0B7
:1052000001042146092007F029FD002508E00420BB
:1052100007F094F904460CB9012070BD681C85B2F2
:10522000B5F57A7FF3DB0020F7E70000064951F877
:10523000201048F68F62114048F280021143024A62
:1052400042F8201070470000005C00402DE9F04754
:105250000546894616460021012007F0FFFCFFF7AE
:10526000C9FF074617B90020BDE8F0871DB14946C0
:10527000284606F0EDFF3146012007F0EFFC002440
:1052800010E0012007F05AF90746072007F056F909
:1052900000F0800817B1B8F1800F01D10120E3E7D9
:1052A000601C84B2B4F57A7FEBDB0020DCE72DE9EB
:1052B000F0410546884616467F21062007F0CEFCC1
:1052C0007F21072007F0CAFC06212B2007F0C6FC2F
:1052D0000021012007F0C2FCFFF78CFF074617B939
:1052E0000020BDE8F0811DB14146284606F0B0FF20
:1052F0003146012007F0B2FC11E0012007F01EF951
:10530000074667B9092007F019F9044644F004017B
:10531000092007F0A3FC07F07DF90120E1E7072051
:1053200007F00CF910F0200FE7D0092007F006F97C
:10533000044644F00401092007F090FC07F06AF9E4
:105340000020CEE72DE9FF4FC3B083468846914643
:105350000027BA46002406E019F8010B854921F818
:105360001400601C84B24445F6DB002082490870BA
:10537000824908707F21062007F070FC7F210720FA
:1053800007F06CFC07F046F906212B2007F066FCBD
:105390000021012007F062FCFFF72CFF06461EB932
:1053A000002047B0BDE8F08F0120469907F056FC79
:1053B000B8F1000F04D15946022007F04FFC1DE060
:1053C000B8F1000F1AD05946022007F047FC00241C
:1053D00012E0684810F81410022007F03FFC042087
:1053E00007F0ACF8064603E0042007F0A7F80646ED
:1053F000302EF9DC601C84B24445EADBB8E00720BB
:1054000007F09CF810F0200F14D0BAF1020F11DA57
:10541000092007F093F8054645F00401092007F03C
:105420001DFC07F0F7F84FF0000A01205249087000
:105430000020B6E7BAF1000F05D1042007F07EF88E
:1054400008B94FF0010ABAF1000F20D0042007F08C
:1054500075F800281BDD022007F070F839467A1C29
:1054600097B201AA50544FF0020AFE2F0FDDFE2022
:1054700043490880092007F061F8054645F004011A
:10548000092007F0EBFB07F0C5F8002089E70120B1
:1054900007F054F80646002E6AD12AE0022007F0F1
:1054A0004DF839467A1C97B201AA5054FE2F0FDDF1
:1054B000FE2033490880092007F040F8054645F0F2
:1054C0000401092007F0CAFB07F0A4F8002068E7F0
:1054D000032007F033F810F0010F0AD040F2FF501C
:1054E000429003E04298401E80B2429042980028C9
:1054F000F8DC042007F022F80028CFD1092007F0BB
:105500001DF8054645F00401092007F0A7FB07F048
:1055100081F89DF804001B490870002F03DD781EF8
:105520001749088002E0002015490880002406E0A1
:1055300001A9601C085C14490855601C84B210481D
:1055400000888442F4DB4FF0000A0A2006F0F6FFE0
:10555000064616F0020F02D116F0080F06D0012001
:10556000054908700549087000201AE7012018E76E
:1055700045E70000660F0020AE020020B0020020C8
:10558000C0020020BE0200206611002070B588B065
:105590009DF800008DF8000006F0E8FF03F03EFBE8
:1055A0006321232007F05AFB3F21122007F056FB0E
:1055B0000F21222007F052FB0721212007F04EFB8C
:1055C000E0205E4908708020487009212A2007F0F9
:1055D00045FBBA212C2007F041FB1E22574902202F
:1055E000FFF765FE064616B9012008B070BD0A2017
:1055F00006F0A4FF064606F00200022801D10520AD
:10560000F3E706F00400042801D11420EDE706F0CA
:105610000800082801D10220E7E7042006F08EFFE9
:1056200047490880474802F0A7FF464800784649A6
:1056300008700846007842490988884203D0FFF77D
:10564000D9FD0120D1E73E480088012865DD3D48AD
:1056500040783E4908700846007800F00F003C4949
:1056600008703C48097830F811003B490880022452
:105670003648007810F0100F12D02046611CCCB2D2
:105680003049085C3549087008460078C0F30210BC
:10569000334908703148007800F00700314908703C
:1056A0002A48007810F0200F11D02046611CCCB29F
:1056B0002449085C2C4908700846007800092B49E9
:1056C00008702948007800F00F00294908701F4829
:1056D000007810F0400F12D02046611CCCB219495E
:1056E000085C244908700846007800F0010022494F
:1056F000087020480078C0F3400020490870002559
:1057000006E060190F49085C0DF80500681CC5B279
:105710000D480078001BA842F3DC022018490870ED
:105720000020184908701849087018490870104876
:10573000007806F0AAFF002057E70000CC0D0020FB
:10574000BA020020430F00207302002074020020E0
:105750007502002080020020A002002076020020B6
:105760007702002078020020790200207A020020CF
:105770007B0200207C0200207D0200207E020020AF
:105780006C020020AC020020BD020020BC02002000
:105790002DE9F0472848006800F110052E882648BA
:1057A0000068077AD6B9042F18D124480078012858
:1057B0000FD100212248006880B2801C214A42F8A3
:1057C000101030202049088000BF00201B490870BD
:1057D00003E0072710201C49088027E0AC88A64278
:1057E00001D8042000E002200746B44200D9344624
:1057F000A0B2A96888478046002000F0F9FD8146E4
:10580000A2B24946404606F007FDA1B2002004F0CE
:105810000DFF2888001B288068882044688030207D
:105820000949088000020949088000BF0249096847
:105830000F72BDE8F087000008040020000400207B
:10584000505C0040006000401A0400201804002052
:105850002DE9F0412848006800F110042688A0686E
:10586000C0B1BEB1A588B54200D93546A8B2A1687D
:10587000884707462088401B208060882844608035
:10588000002000F0A5FD8046AAB24146384602F04D
:10589000A7FA00BF208850B14FF440501749088044
:1058A0000021084604F0C2FE3020154908802088F7
:1058B000A188884204DB03200F490968087218E0B8
:1058C0002088002804DD05200B490968087210E0D3
:1058D000208870B906200849096808720021094823
:1058E000006880B2801C084A42F810103020044939
:1058F0000880BDE8F08100000804002018040020A2
:105900001A040020505C0040006000402DE9F84F70
:105910009848006845780027BA46062D1AD1954860
:105920000068007810F07F0F13D1924909688878D9
:10593000012803D190490968CF690AE0022803D100
:105940008D4909680F6A04E0032802D18A49096871
:105950004F6A90E0002D60D186480068408800289A
:105960005BD184480068C088022856D1814800680D
:105970000079002851D17F480068007810F07F0F2F
:1059800005D17C480068808808B97C4F73E079486D
:105990000068007800F07F00012810D1754909687F
:1059A0004879754909688A6900219047002862D1C1
:1059B00070480068807A00285DD0704F5BE06D48C9
:1059C0000068007800F07F00022854D16948006820
:1059D000407900F00F0667480068407900F07009D0
:1059E00064480068407910F0800F05D0644850F892
:1059F000260000F0300804E0614850F8260000F46A
:105A0000405860480078B04235D9B9F1000F32D122
:105A1000B8F1000F2FD0594F2DE0082D07D1554870
:105A20000068007810F07F0F25D1574F23E00A2D32
:105A300021D150480068007800F07F0001281AD179
:105A40004C480068807AB0B14A480068408890B9F4
:105A500048480068007970B946480068C088012845
:105A600009D1444909684879434909688A6900218C
:105A7000904700B9454F57B13E480068A0F812A0C2
:105A80003C48006887610020B84700240FE0394A8D
:105A900012685078384A1268116988470446032C06
:105AA00005D10920334909680872BDE8F88F3148EB
:105AB0000068008AA0F57F41FF3904D109202D49F3
:105AC00009680872F1E7022C03D02A480068008AAE
:105AD00020B90820274909680872E6E725480068C8
:105AE000007810F0800F3CD022480068C0880090F9
:105AF00020480068008A0099884204D91D4900980E
:105B00000968088223E01B480068008A194909686F
:105B1000C98888421BDA17480068008A1649096854
:105B200091F82C10884203DA0020194908700EE021
:105B300010480068008A1049096891F82C1090FB01
:105B4000F1F201FB120010B90120114908700A4856
:105B5000006890F82C10074800688182FFF718FE53
:105B600006E0032003490968087200030949088018
:105B700000BF9AE7080400200C04002009AA0008CE
:105B8000005C0040500300208DA90008DDA900083A
:105B9000000400201804002070470000064909682E
:105BA0000144064A116000BF04490968024A1268AC
:105BB0009142F9D87047000004000020080000203E
:105BC0000346062106224FF4784001884FF47C40BA
:105BD0000288A3B1012B1AD132B9A1F56E40EE387B
:105BE00000D170470120FCE739B9A2F56E40EE38CC
:105BF00001D10120F5E70020F3E7AB20F1E709B977
:105C00000020EEE70AB90120EBE7AB20E9E700202E
:105C1000E7E710B504244FF4784000F00FFA04468B
:105C2000042C01D0204610BD00214FF4784000F034
:105C30005FFA0446042C01D02046F4E74FF47C4080
:105C400000F0FCF904462046EDE700002DE9F0479E
:105C50004FF0060A062600250027A8464FF0FF3918
:105C60004FF47840B0F800A04FF47C4006885FEA1B
:105C70000A006ED0A0F56E40EE382DD0A0F5885009
:105C8000113867D14EB94FF4784000F0D7F9044687
:105C9000042C20D02046BDE8F087A6F56E40EE38F3
:105CA00012D14FF4784000F0C9F90446042C01D019
:105CB0002046F0E700214FF47C4000F019FA04463A
:105CC000042C08D02046E6E7FFF7A3FF0446042C87
:105CD00001D02046DFE7B6E08EBB002523E04FF67B
:105CE00006000088594931F81510884201D10FFA91
:105CF00085F94D4515D0554931F81500544900F046
:105D00001DF98046B8F1010F0BD0504931F815004C
:105D10004F49098800F042F90746042F01D0384660
:105D2000B9E7681C85B2FF2DD9DB00214FF478401C
:105D300000F0DEF90446042C02D02046ABE70AE06E
:105D40004FF47C4000F07AF90446042C21D0204620
:105D5000A1E71FE06FE0A6F57F40FF3812D14FF4B6
:105D60007C4000F06BF90446042C01D0204692E7F9
:105D700000214FF4784000F0BBF90446042C08D011
:105D8000204688E7FFF745FF0446042C01D0204653
:105D900081E758E036B9FFF73CFF0446042C49D0B0
:105DA000204678E7A6F57F40FF3808D14FF47C40C5
:105DB00000F044F90446042C3CD020466BE7002553
:105DC00023E04FF606400088204931F8151088423C
:105DD00001D10FFA85F94D4515D01C4931F8150050
:105DE0001B4900F0ABF88046B8F1010F0BD0174902
:105DF00031F815001649098800F0D0F80746042F3D
:105E000001D0384647E7681C85B2FF2DD9DB002159
:105E10004FF47C4000F06CF90446042C01D020467D
:105E200039E74FF4784000F009F90446042C01D01A
:105E3000204630E707E0FFF7ECFE0446042C01D0D3
:105E4000204628E700BF00BF042024E76E000020A2
:105E50006C0000202DE9F84F0746894604254FF6CF
:105E6000FF3A4FF4784000904FF0000800240026DD
:105E70004FF0000B0020FFF7A3FE8046B8F1010FA2
:105E800005D14FF4784A4FF47C4000900BE0B8F114
:105E9000000F05D14FF47C4A4FF47840009002E0A7
:105EA000AB20BDE8F88F4EF6EE61504600F020F9C9
:105EB0000546042D01D02846F3E74946384600F050
:105EC0006DF80646042E01D03046EAE700241CE0B7
:105ED000184830F81400B84215D0164931F81400AB
:105EE000154900F02BF88346BBF1010F0BD0114987
:105EF00031F814001049098800F050F80646042EC5
:105F000001D03046CDE7601C84B2FF2CE0DB009866
:105F100000F094F80546042D01D02846C1E7002181
:105F2000504600F0E5F80546042D01D02846B8E7B4
:105F30002846B6E76E0000206C0000202DE9F047EF
:105F400006460F4600244FF4AA484FF001094FF4CB
:105F50007845AA460020FFF733FE0446AB2C01D15A
:105F6000BDE8F0874FF4784000EB842A601C4FF2C4
:105F7000FE7101EB80250AE0B5F80080B04505D13F
:105F800035F8020C38804FF0000904E02D1F0AF1AB
:105F900002008542F0D800BF4846E1E72DE9F0470E
:105FA00006468846042700254FF478444FF6FF79CB
:105FB0000120FFF705FE0546AB2D01D1BDE8F087B6
:105FC0004FF4784000EB8524681C4FF2FE7101EB22
:105FD000802913E02068401C0FD14146204600F084
:105FE00087F80746042F01D03846E7E73146A01C62
:105FF00000F07EF807463846E0E7241D4C45E9D31B
:106000008020DBE770B505460E4600243146284661
:10601000FFF7C4FF0446802C04D131462846FFF721
:1060200019FF0446204670BD704770477047000056
:106030000320014908607047F803002070B5054649
:10604000042440F6FF7000F08DF80446042C19D1AA
:106050000D48006940F002000B490861084645619F
:10606000006940F04000086140F6FF7000F07AF8E7
:106070000446052C06D00448006941F6FD7108402D
:1060800001490861204670BD0020024004200B49F0
:10609000C96811F0010F01D001200EE00749C9685D
:1060A00011F0040F01D0022007E00449C96811F083
:1060B000100F01D0032000E00420704700200240B0
:1060C0000348006940F08000014908617047000002
:1060D000002002400549096821F01001034A1160BF
:1060E000114609680143116070470000002002401A
:1060F00070B505460E4604240F2000F033F8044620
:10610000042C13D10A48006940F0010008490861D5
:106110002E800F2000F026F80446052C06D00448F7
:10612000006941F6FE71084001490861204670BDD2
:106130000020024001460020034A106800F03800A9
:1061400008431060704700000020024002480349E5
:1061500048600348486070472301674500200240BB
:10616000AB89EFCD70B504460425FFF78FFF0546D8
:1061700005E006F07BF8FFF789FF0546641E012D58
:1061800001D1002CF5D104B90525284670BD70B5A4
:106190000546FDB1112006F0D1F920F00304214697
:1061A000112006F05BFD002408E044F6206601E0C3
:1061B000701E86B2002EFBDC601CC4B2AC42F4DB65
:1061C000112006F0BBF940F003042146112006F02F
:1061D00045FD04E0112006F0B1F920F0030421464A
:1061E000112006F03BFD70BD08B50121092001F02A
:1061F0009FFF01210A4800F0A1F80820ADF8000037
:1062000003208DF8020010208DF803006946054830
:1062100000F00AF80821034800F0D3F808BD000098
:1062200000023000000C01402DE9F041024600253B
:106230000026002000230024002791F803C00CF062
:106240000F0591F803C01CF0100F03D091F802C0A5
:106250004CEA050591F800C0BCF1000F31D014687C
:1062600000202BE04FF0010C0CFA00F3B1F800C055
:106270000CEA03069E4220D183004FF00F0C0CFA6B
:1062800003F7BC4305FA03FC4CEA040491F803C08D
:10629000BCF1280F06D14FF0010C0CFA00FCC2F83B
:1062A00014C00AE091F803C0BCF1480F05D14FF0CB
:1062B000010C0CFA00FCC2F810C0401C0828D1D315
:1062C0001460B1F800C0BCF1FF0F34DD5468002049
:1062D0002EE000F1080C4FF0010808FA0CF3B1F8B9
:1062E00000C00CEA03069E4221D183004FF00F0C40
:1062F0000CFA03F7BC4305FA03FC4CEA040491F8DA
:1063000003C0BCF1280F05D100F1080C08FA0CF805
:10631000C2F8148091F803C0BCF1480F07D100F116
:10632000080C4FF0010808FA0CF8C2F81080401C65
:106330000828CED35460BDE8F0810000F0B50A46CD
:106340000023002400210025174E7168C0F3034587
:1063500083B200F44016B6F5401F08D121F07061F9
:10636000114E766826F070660F4F7E6012E000F4E2
:106370008016B6F5801F06D1032606FA05F4A14360
:1063800041F0706106E0460D360103FA06F6B143AE
:1063900041F0706122B1460D360103FA06F6314331
:1063A000014E7160F0BD0000000001400246002077
:1063B00093680B4201D0012000E00020704741614A
:1063C0007047016170470AB1016100E041617047A7
:1063D00001460548006880B200EBC100001D034A79
:1063E00032F8100080B27047505C004000600040FE
:1063F00001460548006880B200EBC100034A32F84C
:10640000100080B270470000505C00400060004007
:106410000146034850F8210000F0300070470000AA
:10642000005C004008B5B2208DF8000000208DF817
:1064300001001E2269460120FEF708FF68B9B2205C
:106440008DF8000000208DF801001E226946012011
:10645000FEF7FCFE08B9012008BD0020FCE70000A3
:1064600010B50F4B18681B1D19681B1D1A68A8B1C1
:106470000C4CA070030A2371030CA371030E23724A
:10648000A1720B0A23730B0CA3730B0E2374A2745B
:10649000130A2375130CA375130E237610BD000089
:1064A000E8F7FF1FDF02002070B504460025062C28
:1064B00018D134480068007800F07F00012811D11D
:1064C00030480068407968B92E48006880782228F2
:1064D00001D12D4D47E02B4800688078212842D11A
:1064E0002A4D40E0062C19D126480068007800F0BB
:1064F0007F00012812D123480068407901280DD17E
:10650000204800688078222801D1214D2BE01D48C9
:1065100000688078212826D11C4D24E019480068A5
:10652000007800F07F00212803D1032C01D1194D00
:1065300019E014480068007800F07F00212808D195
:10654000012C06D11448007808B1032070BD134D0A
:1065500009E00C480068007800F07F00212802D193
:10656000092C00D10E4D0DB90220EFE70548006857
:10657000856100210348006841820020A84700206F
:10658000E4E700000804002095660008CD650008D7
:10659000E1650008F5650008F603002011660008B3
:1065A0003D68000810B504460249204604F004FA8C
:1065B00010BD0000B003002010B50446024920467B
:1065C00004F0FAF910BD0000A803002010B504463D
:1065D0000249204604F0F0F910BD0000C803002075
:1065E00010B504460249204604F0E6F910BD00004B
:1065F000C0030020014629B90120034A1268108215
:10660000002070470148FCE708040020F003002048
:1066100002461B480068418ACAB91A480068FF2828
:106620000AD3C1F1FF00164B1B6818821548006899
:10663000FF38144B186008E012480088401A104BCD
:106640001B68188200200F4B1860002070470E480E
:106650000078012811D151B90C480068C0EB002026
:1066600001440A480068401C084B186005E00748D0
:106670000068401EC0EB0020014405480844E5E7DF
:1066800008040020440300203C03002040030020B5
:106690001415002010B504460249204604F08CF978
:1066A00010BD0000B803002070B50546064800681C
:1066B000C478042C01DD002070BD044800EBC40147
:1066C000284604F079F9F7E708040020D0030020F9
:1066D0000246002901DD02207047002A01DD022068
:1066E000FAE70020F8E7000000B502460648006817
:1066F000007800F07F00212804D10B2A02D100F09D
:1067000091F800BD0220FCE70804002010B500202D
:1067100037490968887236490968C8723548C079AE
:10672000334909684872002003F0DAFE4FF4007123
:10673000002003F0BBFF1021002003F085FF18218B
:10674000002003F0F9FE5821002003F05FFF002035
:10675000FEF76CFD284890F82C10002003F0FEFE98
:10676000002003F03DFF4FF4C061012003F09EFFC5
:10677000C021012003F04AFFD021012003F0DCFEFC
:106780000221012003F052FF0221012003F0E6FE66
:106790004FF44051012003F007FF2021012003F0B6
:1067A00053FF4FF4C061022003F080FF4FF480716B
:1067B000022003F02BFF4FF4A071022003F0BCFE77
:1067C0000821022003F032FF0821022003F0C6FE58
:1067D0004FF44051022003F0E7FE2021022003F095
:1067E00033FF002003F084FE01200449086010BD3F
:1067F000080400202ECD000854030020F8030020D8
:1068000003480068807A10B105200249086070478B
:1068100008040020F80300200420014908607047A4
:10682000F803002003480068C17803480160002095
:106830007047000008040020F003002002460B48C7
:106840000068418A32B9C1F1FF00084B1B68188209
:10685000002070470648007820B106480088C0EB49
:106860000020014404480844F3E700000804002025
:10687000480300204A0300201413002010B50C48E0
:106880000068007800F07F00212810D108480068D7
:10689000407809280BD106480068007A062806D1FE
:1068A0000120044908700449087005F079FA10BD08
:1068B00008040020F4030020F603002007480068C5
:1068C000007800F07F00212806D104480068407855
:1068D000012801D102490870704700000804002017
:1068E000F503002010B5FFF7BBFD0020054909683E
:1068F000887201F029FB05F0E5FB002002490860E1
:1069000010BD000008040020F803002000BFFEE7CF
:1069100010B518480068047A022C01D0042C05D167
:10692000FEF736FF13480068047A1CE0062C19D1E4
:1069300010480068407805280ED10E48006800789D
:1069400010F07F0F08D10B490968C87803F0D0FD1B
:1069500009490968086A80470849096888688047C2
:10696000082400E00824034909680C7201F0C8FA01
:1069700010BD000008040020140400200C040020B6
:1069800070B510211D48FFF71CFD1E20FFF706F90A
:1069900010211A48FFF713FD1E20FFF7FFF8012012
:1069A00005F0CCFD0446002504E0012005F0C6FDFD
:1069B00004466D1C002CF8D106F0CDF84FF40071A0
:1069C0000E48FFF7FCFC80210C48FFF7FAFC4FF45F
:1069D00080710A48FFF7F5FC4FF480710848FFF713
:1069E000F0FC7F21062006F039F97F21072006F010
:1069F00035F90021012006F031F970BD000C01408D
:106A00000008014010B51921142006F027F9732160
:106A1000192006F023F908211A2006F01FF9632136
:106A2000232006F01BF96321242006F017F9FF212B
:106A30001C2006F013F90321222006F00FF909208B
:106A400005F07CFD00F0F7042146092006F006F968
:106A500007210F2006F002F95B21112006F0FEF855
:106A600010BD000008B50121082001F061FB0320E2
:106A7000ADF8000002208DF8020010208DF8030010
:106A800069460648FFF7D0FB02210448FFF799FC4E
:106A900001210248FFF795FC08BD0000000C0140F1
:106AA0000548817A19B10521044A116002E00121EB
:106AB000024A11607047000014170020F8030020FC
:106AC00070B50546284600F017F8192209490C2030
:106AD000FEF7BCFB04460CB9132070BD0A2005F07C
:106AE0002DFD00F04004402C01D10120F5E70020ED
:106AF000F3E70000F80E0020FCB50246002000235A
:106B00000024002104E0555C0DF801504D1CE9B251
:106B10000629F8DB002016E01DF8005005F00F03F1
:106B20001DF800502C11DD4343EA0515012606EB44
:106B30004006064FBD55E54344EA05153E4606F8B6
:106B40001050451CE8B20628E6DBFCBDF80E00201C
:106B50002DE9F04106460F460721222006F07EF877
:106B6000341DC020207067701E2221460220FEF7CF
:106B70006DFB054615B90120BDE8F081042005F044
:106B8000DDFC05460DB90C20F6E7204601F0F4FCCB
:106B90002578042D0BD003DC3DB1012D0ED109E089
:106BA000052D09D00A2D09D103E00A20E4E70320CE
:106BB000E2E705E00220DFE70520DDE71120DBE763
:106BC00000BF1A2231460420FEF740FB05460DB9EE
:106BD0001120D1E70020CFE770B505F0C7FC0721F1
:106BE000222006F03BF8502016490870002048701B
:106BF00006212A2006F032F82B212C2006F02EF850
:106C00001E2210490220FEF752FB0446012C07D138
:106C1000002501E0681C85B2802DFBDB002070BDE3
:106C20000A2005F08BFC044604F00200022801D182
:106C30000520F4E704F00400042801D11420EEE755
:106C40000120ECE7CC0D00202DE9F04106460F466F
:106C50000721222006F002F8341DC1202070677041
:106C60001E2221460220FEF7F1FA054615B9012041
:106C7000BDE8F081042005F061FC05460DB90C204B
:106C8000F6E7204601F078FC257835B1042D06D0D2
:106C9000052D07D00A2D07D103E00A20E8E70320DD
:106CA000E6E703E00520E3E71020E1E700BF1A2252
:106CB00031460420FEF7CAFA05460DB91020D7E781
:106CC0000020D5E770B505460E460F21222005F0BD
:106CD000C5FF302028706E701E2229460220FEF764
:106CE000B5FA04460CB9012070BD0A2005F026FC57
:106CF000044604F00200022801D10520F4E704F064
:106D00000400042801D11420EEE7042005F016FC4D
:106D10000446102C04D1284601F02EFC0020E3E7A5
:106D2000042C04D1284601F027FC0020DCE70C20CD
:106D3000DAE7000070B506460721222005F08EFF35
:106D4000C22022490870084646701E220220FEF723
:106D50007DFA04460CB9012070BD042005F0EEFB5D
:106D600004460CB90C20F7E7184801F005FC174859
:106D70000478042C0BD003DC3CB1012C0ED109E0CB
:106D8000052C09D00A2C09D103E00A20E4E70320EE
:106D9000E2E705E00220DFE70520DDE70D20DBE785
:106DA00000BF002504E0002008494855681CC5B212
:106DB000042DF8DB1A2205490420FEF747FA0446A1
:106DC0000CB90D20C8E70020C6E7000066110020BE
:106DD00070B505460721222005F040FFB020184974
:106DE0000870084645701E220220FEF72FFA04465E
:106DF0000CB9012070BD042005F0A0FB04460CB9BD
:106E00000C20F7E70E4801F0B7FB0D480478042C7E
:106E10000BD003DC3CB1012C0FD10AE0052C0AD0C9
:106E20000A2C0AD103E00A20E4E70320E2E700206D
:106E3000E0E70220DEE70520DCE70E20DAE70000CD
:106E4000661100202DE9F04106460F460721222059
:106E500005F004FF06F11005A02028706F701E22B7
:106E600029460220FEF7F2F9044614B90120BDE8D4
:106E7000F081042005F062FB04460CB90C20F6E713
:106E8000284601F079FB2C78042C0BD003DC3CB1B4
:106E9000012C0ED109E0052C09D00A2C09D103E000
:106EA0000A20E4E70320E2E705E00220DFE705200F
:106EB000DDE70F20DBE700BF1E2231461020FEF782
:106EC000C5F90446012C01D10020D0E70A2005F0C5
:106ED00035FB044604F00200022801D10520C6E774
:106EE00004F00400042801D11420C0E704F00800D5
:106EF000082801D10220BAE70F20B8E710B5012019
:106F00000849087008490870084908700846007860
:106F100004F0C2F940210648FFF751FA0120054963
:106F2000087010BD0E0000200D0000200C00002095
:106F3000000C01400F00002070B5D0B00546244A77
:106F400007CA07AB07C322490C31D1E90023D1E9B5
:106F50000201CDE90323CDE905011D491C3103C917
:106F6000CDE901010AAA072107A801F07DFC04462A
:106F70009DF829109DF8280001EB002086B2022C14
:106F800002D1B6F5104F02D0A0B250B070BD0AAA1F
:106F90000B2103A801F068FC04469DF829109DF818
:106FA000280001EB002086B2022C02D1B6F5104F6A
:106FB00001D0A0B2E9E72A46052101A801F054FC5E
:106FC0000446FA2C01D0A0B2DFE70020DDE7000084
:106FD0008CCC000800BFFEE770B5002500201E49DC
:106FE000087000BF1D480078401E1B490978884280
:106FF00001DA182070BD1849097849009331C8B2E8
:1070000000F0C2FF0446CCB9134909784900933116
:10701000C8B201F0EFF904460F2C01D11720E9E7BF
:107020000CB9002510E0052C06D10B480078401C57
:1070300009490870012507E01720DBE7172C01D16B
:107040001820D7E71820D5E71DB10348007803289A
:10705000C8DB0020CEE70000710200207002002093
:107060007047704770B5002100230F22C4780CB31D
:10707000164C246804F4E064C4F5E064210AC1F10C
:107080000403CA40447804FA03F18478144021438D
:1070900009010F4C0678A155047804F01F0501245E
:1070A000AC4005786D114FF0E02606EB8505C5F87C
:1070B000004109E0047804F01F050124AC40054DAF
:1070C0000678761145F8264070BD00000CED00E012
:1070D00000E400E080E100E002490143024A11605F
:1070E000704700000000FA050CED00E0024A0A407B
:1070F0000243024B1A60704780FFFF1F08ED00E05B
:1071000070B502264948006844784848006800780D
:1071100010F07F0F4AD1092C03D103F0F1FC064691
:1071200065E0052C14D141480068C0787F280BDC4D
:107130003E480068807838B93C480068808818B9B3
:107140003A480068807A08B108256BE000264EE0D6
:10715000032C14D135480068C07801280DD133487C
:107160000068808848B931480068407A10F0200FE4
:1071700003D003F0E9FC064639E0022637E0012C93
:1071800035D12A480068C07801280DD12748006809
:10719000808848B925480068407A10F0200F03D055
:1071A00003F050FB064622E0022620E01F4800685C
:1071B000007800F07F00012805D10B2C17D103F0D7
:1071C00033FD064613E019480068007800F07F00A0
:1071D00002280BD1012C03D103F034FB064606E054
:1071E000032C04D103F0C4FC064600E002264EB195
:1071F000E0B20F4A1268516988470646032E01D152
:1072000009250FE00EB108250CE0062500210948EC
:10721000006880B2801C084A42F8101030200749EC
:10722000088000BF014909680D7270BD0804002084
:107230000C040020505C0040006000401A04002054
:1072400010B511480068047A022C01D0042C01D139
:10725000082412E0032C01D0052C05D1FEF7F8FA22
:1072600009480068047A08E0072C05D10749096835
:10727000C8688047082400E00824034909680C72A4
:1072800000F03EFE10BD0000080400200C040020A9
:1072900010B5044620780E490870A078617800EB9C
:1072A00001200B49A1F801002079E17800EB0120D1
:1072B0000749A1F80300607948710846B0F8010059
:1072C000C21EA11D0248801DFCF7AAFF10BD0000D0
:1072D000B20900202DE9FC5F4FF0000A0026B346FA
:1072E00000274FF6FF700090FB48007818B9FB4864
:1072F000007800287ED00020F7490870F749087010
:107300000220F74908704FF49671F548801DFCF78C
:10731000FEFFF448B0F803104CF24012881A914274
:1073200069D02BDCB0294ED00FDC0C2978D2DFE8F5
:1073300011F0770049005000FB04C300770077008C
:1073400077008202BA02E2022F0343F21412881A73
:10735000914270D009DCD02963D06FF440500818F6
:107360006AD0B0F5897F5BD134E0A0F510401C38BD
:107370007ED001287DD00228F5D119E10E2879D0E0
:107380000CDCA0F105000728D0D2DFE810F0B5032F
:10739000DB03FB031A043B045B047A04F2286AD083
:1073A00006DC1F2868D0F02867D0F128DBD136E151
:1073B000B0F5F87F7BD0A0F58070F13878D0012847
:1073C000D1D122E200BFC648FDF7C6F84FF0010A4E
:1073D0001AE200BFC3488079C3490870C148C07928
:1073E000C2490870BF48007AC14908700846007851
:1073F00068B101E0FAE317E30846007803F04CFFB8
:107400004021BC48FEF7DBFF0120BB49087000208B
:10741000B349A1F80300A1F801004FF0010AD7E732
:10742000EFE30024B548007838B9AD48B0F8011052
:1074300004F018FC0BE0FAE33FE0A949B1F80120A1
:10744000B1F8031008B2A649891D04F04DFE00BF33
:107450000098411E89B200910028F9D1FEF776FE0E
:10746000A748FEF7EBFD042823D142F2112105E0E5
:107470005CE074E0C2E218E1F8E3ABE0A148006828
:10748000FEF736FE042814D1012080F3138800BFD4
:1074900000BF9D48006800F4E0609C490843001D5F
:1074A00099490860BFF3408F00BF00BFFEE73BE192
:1074B00060E14FF0010A8BE700BF8A488079062817
:1074C00007DD03252846FCF78BFE8549A1F803005C
:1074D00025E00024834880798D490870FEF736FE48
:1074E000804A91798B4A1088FEF78CFD04B2FEF732
:1074F000E7FD042C07D046242046FCF771FE7849AE
:10750000A1F8030003E000207549A1F80300022060
:10751000FEF744FB042C02D101207F4908700020B3
:107520006F49A1F801004FF0010A51E70320FEF76F
:107530002EFE4FF00009484601AA6949891D01F055
:1075400033F805462846FCF74BFE6549A1F80300D1
:10755000BDF80400A1F801004FF0010A38E76148C6
:10756000B0F80180A8F103001FFA80F85C4A921D70
:1075700041465C48801D01F077F904460220FEF781
:107580000DFB002C0BDA00205549A1F80100202446
:107590002046FCF725FE5249A1F8030005E05049BA
:1075A000A1F801400020A1F803004FF0010AE4E334
:1075B000FFF712FB03F030F90520FEF7EFFA03F0B6
:1075C00036F900204649A1F80100A1F803004FF068
:1075D000010AD2E303205149087042494879404AE0
:1075E000921D01A9FDF7AAFD04B224B1492400208F
:1075F0004B49C87005E0002401204949C870494939
:107600000870BDF804003649A1F80100A0B2FCF7EB
:10761000E7FD3349A1F803004FF0010AADE331481B
:10762000B0F80180A8F103001FFA80F803203B495D
:1076300008703C480078012829D1294A921D29491F
:10764000891D4046FDF7E0F805462548C0792449E4
:10765000897900EB01202249A1F801000846B0F821
:1076600001200831801DFCF7DBFD15F4104F02D11D
:1076700015F4C04F01D0002500E049252846FCF74D
:10768000AFFD1749A1F803004FF0010A0CE00020FC
:107690001349A1F8010049252846FCF7A1FD10492E
:1076A000A1F803004FF0010A67E300201C49C870ED
:1076B00003201A4908704FF400510E48FEF77FFE70
:1076C00000200749A1F80100A1F803004FF0010ACA
:1076D0001449087051E30000F70300202500002042
:1076E000E60A0020B20900200E0000200D00002054
:1076F0000C000020000C01400F00002000000020C2
:10770000003C0008580000200CED00E00000FA05E5
:10771000690000206E00002052000020510000206F
:10772000540000205C0000200220F9490870F9494B
:107730004879F94A01A9FDF701FD04B224B14924B1
:107740000020F649887005E000240120F349887084
:10775000F3490870BDF80400EF49891FA1F8010042
:10776000A0B2FCF73DFDEC49891FA1F803004FF0E2
:10777000010A02E3E748B0F80180A8F103001FFA0C
:1077800080F80220E2490870E548007801282CD1F1
:10779000E14AE049891D4046FDF736F80546DE48D6
:1077A000801FC079DC49891F897900EB0120DA4903
:1077B000891FA1F801000846B0F801200831801D9A
:1077C000FCF72EFD15F4104F02D115F4C04F01D077
:1077D000002500E049252846FCF702FDCE49891F17
:1077E000A1F803004FF0010A0EE00020CA49891FEA
:1077F000A1F8010049252846FCF7F2FCC649891F7B
:10780000A1F803004FF0010AB7E20020C3498870D5
:107810000220BF4908700821C248FEF7D0FD0020B1
:10782000BD49891FA1F80100A1F803004FF0010A2A
:10783000BB490870A1E20024FEF788FCB5488779AF
:10784000002611E0721CB34B9B1D9A5C002303EBD6
:10785000022291B206F10802B34B33F81200FEF790
:10786000D1FB04B2701CC6B2BE42EBDBFEF728FCB3
:10787000042C0ED00020A849891FA1F80100A0B255
:10788000FCF7AEFCA449891FA1F803004FF0010AE0
:1078900008E00020A049891FA1F80100A1F8030019
:1078A0004FF0010A69E29B488779002615E09F4A5C
:1078B00002EB460106F108029B4B33F81200FEF77B
:1078C0003DFB9A4830F8160002125846411C01F060
:1078D000FF0B91490A54701CC6B2BE42E7DB8D48CB
:1078E00080798D49891FA1F801000020A1F80300CB
:1078F0004FF0010A41E200248648417A007A01EB08
:107900000020C7B2FEF722FC002623E0321D814B87
:107910009B1D9A5C002303EB022291B27D4AD2792F
:107920003244814B33F81200FEF76CFB04B2042C96
:107930000ED000207849891FA1F80100A0B2FCF701
:107940004FFC7549891FA1F803004FF0010A03E0BD
:10795000701CC6B2BE42D9DB00BF042C0ED0002082
:107960006D49891FA1F80100A0B2FCF739FC6A49F2
:10797000891FA1F803004FF0010AFEE100206649CB
:10798000891FA1F80100A1F803004FF0010AF4E1FA
:107990006048417A007A01EB0020C7B2002605E07A
:1079A0000020624921F81600701CC6B2BE42F7DB07
:1079B000002612E05D4A02EB4601564AD279324473
:1079C000594B33F81200FEF7B9FA584830F8160050
:1079D000011251488155701CC6B2BE42EADB4D48C7
:1079E000417A007A01EB00204B49891FA1F8010080
:1079F0000020A1F803004FF0010ABEE102F00CFFE5
:107A00004449CA79897902EB012188B2FEF7C6F8A8
:107A100002F00DFF00204049891FA1F80100A1F8E4
:107A200003004FF0010AA8E102F001FF00204049E5
:107A300008703849887900F00BFE04466CB10020CC
:107A40003549891FA1F8010001242046FCF7C8FB35
:107A50003149891FA1F803004BE0FFF7BDFA044646
:107A600064B100202C49891FA1F80100A0B2FCF7E5
:107A7000B7FB2949891FA1F803003AE02D48007897
:107A80002C494978C94348402B4908702B48007855
:107A9000AA281FD12A480078097888420FD12448A3
:107AA00000781D49891FA1F801000020A1F80300FA
:107AB0001F4802781F491848FCF7B2FB19E0002064
:107AC0001549891FA1F801002820A1F80300FFF73C
:107AD00083F80EE0164800780F49891FA1F80100CD
:107AE0000020A1F803001248027812490A48FCF766
:107AF00097FB4FF0010A40E1FFF76EF800200649BE
:107B0000891FA1F80100A1F803004FF0010A34E138
:107B100051000020B2090020EC0A0020540000208F
:107B20005D000020000801406E0000201A0C0020BB
:107B300072020020340F00205E0000205000002060
:107B4000B1020020A0488179A048FFF7BBF80446A5
:107B50006CB100209D49891FA1F80100192420461D
:107B6000FCF73EFB9949891FA1F8030007E01020AC
:107B70009649891FA1F801000020A1F803004FF0E9
:107B8000010AFAE090488179C01DFFF75BF90546CC
:107B90006DB100208D49891FA1F801001A242046EB
:107BA000FCF71EFB8949891FA1F8030006E00020AD
:107BB0008649891FA1F80100A1F803004FF0010ACE
:107BC000DBE081488179C01DFFF73EF8054675B1BD
:107BD00000207E49891FA1F801001B242046FCF7E4
:107BE000FFFA7A49891FA1F8030007E0D2E00020DC
:107BF0007649891FA1F80100A1F803004FF0010A9E
:107C0000BBE0AAE070488179C01DFEF7A1FF0546E0
:107C100075B100206D49891FA1F801001C24204680
:107C2000FCF7DEFA6949891FA1F8030007E07CE050
:107C300000206649891FA1F80100A1F803004FF058
:107C4000010A9AE060498879FFF774F8054675B132
:107C500000205E49891FA1F801001D242046FCF781
:107C6000BFFA5A49891FA1F8030007E027E0002066
:107C70005649891FA1F80100A1F803004FF0010A3D
:107C80007BE051498879FFF7A3F805466DB10020E4
:107C90004E49891FA1F801001E242046FCF7A0FAD6
:107CA0004A49891FA1F8030006E000204749891FBF
:107CB000A1F80100A1F803004FF0010A5DE042487D
:107CC0000830FEF7FDFE05467DB100203F49891FC3
:107CD000A1F801001F242046FCF782FA3B49891FC6
:107CE000A1F803004FF0010A47E0374A9179D079B3
:107CF000FCF790FB05466DB100203449891FA1F8BF
:107D0000010004242046FCF76BFA3049891FA1F8D2
:107D1000030006E000202D49891FA1F80100A1F809
:107D200003004FF0010A28E000BF2748807910F0D7
:107D3000C00F04D002212648FEF741FB03E00221D8
:107D40002348FEF73EFB00202049891FA1F80100CF
:107D5000A1F803004FF0010A0FE000201B49891F22
:107D6000A1F8010006252846FCF73AFA1749891FB1
:107D7000A1F803004FF0010A00BF00BFBAF1010FE4
:107D800020D11448007830B91048801FB0F8011095
:107D900003F068FF16E00D49891FB1F80120B1F822
:107DA000031008B2094904F09FF90B48007848B164
:107DB0000020094908700520FDF7F0FE074800780B
:107DC00004F0E0F9BDE8FC9FB2090020EC0A0020B5
:107DD000000C01400000002052000020690000203B
:107DE000F0B5561C7510074E06EB41042B4605E016
:107DF00034F8047B20F8017B401C5B1E002BF7D17C
:107E0000F0BD00000060004000B502463B2039494B
:107E1000097801EB4101384B03F831000020354966
:107E2000097801EB410103EBC1014870314800784A
:107E300000EB4000194601EBC00082704FF4BA70AD
:107E40002C49097801EB410103EBC1014860012095
:107E50002849097801EB410103EBC1018860322018
:107E60002449097801EB410103EBC10108730520A6
:107E70002049097801EB410103EBC101487300205F
:107E80001C49097801EB410103EBC10188730A2009
:107E90001849097801EB410103EBC1014874012045
:107EA0001449097801EB410103EBC101C8730020BB
:107EB0001049097801EB410103EBC10108740D2061
:107EC0000C49097801EB410103EBC10188740420DE
:107ED0000849097801EB410103EBC101C874202076
:107EE0000449097801EB410103EBC101087504F075
:107EF000CBF900BD51000020B412002070470000F3
:107F000010B50D4890F82C10002002F027FB0B480C
:107F10000068007A082805D140020949088010202D
:107F20000849088005480068007A092801D1012025
:107F300010BD0020FCE700005403002008040020CE
:107F4000180400201A04002010B5012003F07AFE66
:107F500001240B48046000200A4908800846008874
:107F6000074908600020091D08604FF4E0500549EA
:107F700008800846008802490860002010BD000003
:107F8000405C0040120400202DE9F041064604F058
:107F9000EDFA0027B8466321232004F05FFE3F215D
:107FA000122004F05BFE3F21132004F057FE032152
:107FB000222004F053FE0621212004F04FFE404809
:107FC000067020203E49487006212A2004F046FE13
:107FD0002B212C2004F042FE1E2239490220FDF7FD
:107FE00066F9054615B90C20BDE8F081042004F0BF
:107FF000A5FA0546052D01DD0F20F5E7304800F014
:10800000BBFA2A464146384602F094F92D480078DA
:10801000882818D12C48007818B92C4800780128F5
:108020000FD029480078012803D128480078022879
:1080300007D025480078022805D124480078032875
:1080400001D10F20D0E71F480078882810D10124E3
:108050000BE01C48015D1E4802780078401C1C4B58
:1080600018701C488154601CC4B2042CF1DB0FE072
:1080700000240BE01348015D154802780078401C8D
:10808000134B187013488154601CC4B2042CF1DBEC
:108090000A2004F053FA054605F00200022801D137
:1080A0000520A1E705F001053DB9FDF765F8054696
:1080B0000DB9082098E7002096E7172094E7000004
:1080C000CC0D00202A0F0020710200207002002039
:1080D00072020020340F002001460020034A50683D
:1080E00020F44040084350607047000000100240F8
:1080F00029B1064AD2690243044BDA6104E0034A1B
:10810000D2698243014BDA617047000000100240DF
:1081100029B1064A12690243044B1A6104E0034A7A
:1081200012698243014B1A6170470000001002403F
:1081300029B1064A92690243044B9A6104E0034A5A
:1081400092698243014B9A6170470000001002401F
:1081500029B1064AD2680243044BDA6004E0034ABC
:10816000D2688243014BDA60704700000010024081
:108170000F48006840F001000D490860084640685B
:108180000C4908400A494860084600680A49084006
:10819000074908600846006820F480200860084607
:1081A000406820F4FE0048604FF41F00886070476C
:1081B000001002400000FFF8FFFFF6FE30B500217E
:1081C0000022002400232D4D6D6805F00C0121B123
:1081D000042905D0082923D105E0294D056022E0B6
:1081E000274D05601FE0254D6D6805F47012234D85
:1081F0006D6805F48034022505EB92421CB9214DCF
:10820000554305600BE01D4D6D6815F4003F03D02C
:108210001C4D5543056002E0194D5543056002E0D1
:10822000174D056000BF00BF144D6D6805F0F001EB
:108230000909154D6B5C0568DD4045600F4D6D68A3
:1082400005F4E061090A104D6B5C4568DD4085600E
:108250000A4D6D6805F46051C90A0B4D6B5C4568A9
:10826000DD40C560054D6D6805F44041890B074D43
:108270006B5CC568B5FBF3F5056130BD00100240CD
:1082800000127A0000093D001C0400202C0400208C
:1082900010B501460022002300204A11012A02D114
:1082A000094C236806E0022A02D1074C236A01E048
:1082B000054C636A01F01F02012494401C4201D066
:1082C000012000E0002010BD00100240024840687C
:1082D00000F00C0070470000001002400146002032
:1082E000034A506820F0F0000843506070470000D7
:1082F000001002401149096821F480310F4A1160D1
:108300001146096821F480211160B0F5803F03D047
:10831000B0F5802F0ED106E00849096841F480319C
:10832000064A116007E00549096841F4A021034AA3
:10833000116000E000BF00BF704700000010024065
:1083400001460020034A506820F4E0600843506072
:10835000704700000010024001460020034A5068A8
:1083600020F4605040EAC1005060704700100240A5
:1083700001490866704700000000424202460020A2
:10838000044B586820F47C1042EA01031843014B67
:10839000586070470010024001460020034A5068B0
:1083A00020F00300084350607047000000100240B6
:1083B0000149086070470000D800424238B50020EB
:1083C00000900024002500BF3120FFF761FF054623
:1083D0000098401C00900098B0F5A06F01D0002DCF
:1083E000F2D03120FFF754FF08B1012400E000244F
:1083F000204638BD70B5064604F0B8F86321232046
:1084000004F02CFC3F21122004F028FC0F21222034
:1084100004F024FC0721212004F020FC24480670ED
:10842000702023494870002506E02248415D204A1B
:10843000A81C1154681CC5B2052DF6DB2B212C207D
:1084400004F00CFC1E221A490720FCF730FF0446FA
:108450000CB9012070BD0A2004F070F8044604F045
:108460000200022801D10F20F4E704F004000428E0
:1084700001D11420EEE704F00800082801D1022001
:10848000E8E7042004F05AF80446012C01D00C203F
:10849000E0E7074800F070F80548047806480470E3
:1084A00014F0040F01D00520D4E70020D2E700002B
:1084B000CC0D00202A0F0020B102002008B50121B8
:1084C0000D20FFF735FE01212848FDF737FF10206A
:1084D000ADF800008DF8030002208DF80200694617
:1084E0002348FDF7A1FE10212148FDF76AFF4FF454
:1084F0000070ADF8000010208DF8030003208DF807
:10850000020069461A48FDF78FFE4FF48070ADF8FF
:10851000000010208DF8030001208DF8020069464C
:108520001348FDF781FE8020ADF8000010208DF883
:10853000030002208DF8020069460D48FDF774FE25
:108540004FF48070ADF8000048208DF80300012042
:108550008DF8020069460748FDF766FE4FF480710A
:108560000448FDF72CFFFEF70BFA08BD00023000AF
:10857000000C01400008014070B50646042003F0DD
:10858000DDFF05460DB9002070BD142D00DB182558
:10859000002405E0022003F0D1FF3055601CC4B276
:1085A000AC42F7DB2846EFE72DE9F04180460C4668
:1085B00017460020388002F03AF90220FDF7EEFA63
:1085C000012000F045F8064616B10120BDE8F08113
:1085D0000A2004F8010BFEF7FFFC06460EB13046F8
:1085E000F4E71748007804F8010B002505E015486A
:1085F000405D04F8010B681CC5B211480078854243
:10860000F5DBFCF7C3FF06460EB14820DEE70E4857
:10861000008804F8010B002505E00C48405D04F8D3
:10862000010B681CC5B2084800888542F5DB064886
:108630000088034909780844C01C38800020C5E739
:1086400072020020340F0020BA020020430F0020E5
:1086500070B5054600204A4908704A4908704A49E1
:108660000870FEF7CFF90721212004F0F7FA03F094
:108670007DFF1DB926204549087002E0522043497C
:10868000087006212A2004F0E9FA2B212C2004F09E
:10869000E5FA1E223D490120FCF709FE04460CB90B
:1086A000012070BD0A2003F049FF044604F00200D7
:1086B000022801D10520F4E704F00400042801D1C8
:1086C0001420EEE704F00800082801D10220E8E7B2
:1086D00014F0010F01D00F20E3E72C48FFF74CFF07
:1086E0000446022C4AD129480078294908702748B5
:1086F000407848700846007810F0C00F02D1012081
:10870000214908702248007800F0C000402802D1BA
:1087100002201D4908701E48007800F0C000802823
:1087200002D10320184908701948007800F0C000F1
:10873000C02801D11020B4E71548007800F01F00D0
:10874000012819D01248007800F01F00022813D029
:108750000F48007800F01F0004280DD00C48007866
:1087600000F01F00082807D00948007800F01F001B
:10877000102801D0102094E7002092E7102090E705
:10878000710200207202002070020020CC0D002037
:10879000B302002070B50546072D01D027480570AB
:1087A00026480078082841D2DFE800F0040A1016B5
:1087B000212E414200F046F80620204908703BE097
:1087C00000F040F804201D49087035E002201B49E4
:1087D0004870032008702FE018484078401E174961
:1087E00048700846407808B90420087024E014480E
:1087F000006884B244F010041148046005200F4959
:1088000008700A20487017E00C484078401E0B4959
:1088100048700846407840B90948006884B224F09E
:108820001004074804600620087005E000BF00BF80
:1088300006200249087000BF00BF70BDFD03002084
:10884000405C004010B50748006884B224F004047E
:1088500004480460FEF724F94FF43F4001490860E2
:1088600010BD0000405C00402DE9F04F87B082460B
:108870000E4693460020049001900120FDF78EF9EA
:10888000DF48007800BB052003F058FE10F0800F91
:108890000BD0072003F052FE814603E0072003F0CF
:1088A0004DFE814619F0200FF8D0092003F046FE56
:1088B000814649F00401092004F0D0F903F0AAFE32
:1088C0000120CF49087002E00220FDF767F901207E
:1088D000FDF764F9F7E0CB480088C01EB04201DD27
:1088E000304602E0C7480088C01E8046A6EB08005C
:1088F00086B20EB1012000E00020074603250120CA
:10890000069000200490C04800680090BF4A12788A
:1089100042F0020242EA0712D0B208F0FF015246CA
:1089200003F084FEC3E002A903A802F0B5FB0446ED
:10893000002C71DB9DF80C0010F0800F44D09DF8E6
:108940000C0010F0400F3FD19DF80C0010F0200FEC
:108950003AD09DF80C0010F0040F35D19DF80C00B2
:1089600010F0020F30D09DF80C0000F00100A74974
:10897000097888421BD00698401C0690032804DD25
:108980004FF0FF356FF0140496E0A04A127842F0E1
:10899000020242EA0712D0B208F0FF01524603F089
:1089A00045FE6D1C0698032800D16D1C7FE037B191
:1089B00096480078C0F10100944908707CE06FF09F
:1089C000130007B0BDE8F08F9DF80C0010F0020F07
:1089D00022D09DF80C0010F0200F1DD19DF80C0046
:1089E00010F0400F18D19DF80C0010F0800F13D13B
:1089F0009DF80C0000F0010084490978884207D1F5
:108A000037B982480078C0F101008049087053E00E
:108A10006FF01300D5E7FFE714F11E0002D16FF0ED
:108A20001300CEE714F11F0002D16FF01E00C8E75B
:108A300014F1140002D16FF01300C2E7002D35DDF0
:108A40000198401CC0B20190714800780B2803DBEC
:108A50006F4800780E2806DD6B4801680098081AF8
:108A6000B0F5AF6F0AD86A4800780B280BDB68486E
:108A700000780E2807DC0198022804DD0020019010
:108A80006FF01F009DE76D1C049800B1049C5F49C6
:108A9000097841F0A20141EA0711C9B241F0100082
:108AA0000022114603F0C2FD049400E000BF28003C
:108AB000A5F101057FF437AF00BF002D02DA6FF09A
:108AC00014007EE7C244002E7FF405AF002005901D
:108AD00000BF9DF808204F495846FBF7A1FB9DF8C1
:108AE000080083449DF808100598084405904A48FA
:108AF0000078C0F10100484908709DF80C00C0F3EF
:108B00000010002876D04149097841F0A2000022E7
:108B1000114603F08BFD032564E002A903A802F0CF
:108B2000BBFA0446002C40DB9DF80C0010F0800FCF
:108B300016D09DF80C0010F0400F11D19DF80C00DC
:108B400010F0200F0CD09DF80C0010F0040F07D18E
:108B50009DF80C0010F0020F02D06FF0130030E708
:108B60009DF80C0010F0020F1FD09DF80C0010F0C3
:108B7000200F1AD19DF80C0010F0400F15D19DF870
:108B80000C0010F0800F10D19DF80C0000F00100D7
:108B90001E490978884206D11C480078C0F10100BE
:108BA0001A49087020E06FF01D0414F11E0002D174
:108BB0006FF0130005E714F11F0002D16FF01E00E3
:108BC000FFE614F1140002D16FF01300F9E6681EFD
:108BD000050007D01049097841F0A2000022114693
:108BE00003F024FD002D98D100BF25B96FF01400CB
:108BF000E7E6FFE700E06CE700BF059800B2E0E6BB
:108C0000AC020020A002002004000020BC020020D2
:108C10007A02002066110020BD02002000200F49CA
:108C200008700F4908700F4908700F4908700F4904
:108C300008700F4908700F49087004200E49087029
:108C400000200E4908700E4908700E4908700E4940
:108C5000087020200D490880704700007302002032
:108C600074020020750200207602002077020020A6
:108C700078020020790200207A0200207B02002086
:108C80007C0200207D0200207E020020A002002045
:108C9000F8B500200090002700222821A04802F00B
:108CA0002AFF002260219E4802F025FF9C4802F026
:108CB00097FF4FF42071684602F0B4FB012801D001
:108CC0001220F8BD01222821954802F014FF01224C
:108CD0006021934802F00FFF9DF800009149087051
:108CE000084600783B2807D18F49097801EB4101FC
:108CF0008E4A02F831000EE08A480078032808D135
:108D00003F208949097801EB4101884A02F8310086
:108D100001E01620D5E74FF41651684602F082FBB9
:108D2000012801D01220CCE79DF800007D49487051
:108D30000846407800F00F0081F82B00002081F8F1
:108D40002A008E1C81F83C000846407800F0800024
:108D5000802800D10127002500240BE071484078CD
:108D600000F0F000211D084100F001002844C5B2C8
:108D7000601CC4B2042CF1DB6A4890F82A00284435
:108D8000684981F82A0000240EE04FF41651684625
:108D900002F048FB012801D0122092E79DF8000064
:108DA00006F8010B601CC4B2AC42EEDB5D484078B3
:108DB00010F0800F24D05B4890F82A00401E5949DB
:108DC000891C085C00F00F005749097801EB41014C
:108DD000564A02EBC1014870524890F82A00401EE2
:108DE0005049891C095C4F4890F83C2090F83C00A1
:108DF000401C4C4B83F83C0003F12D00815408E0EB
:108E000000204949097801EB4101484A02EBC101C0
:108E1000487052E0434890F82A00401E4149891C9E
:108E2000085C00F08000802801D1012700E00027C5
:108E30000025002410E03B4890F82A00401E3949E4
:108E4000891C085C00F0F000211D084100F00100C1
:108E50002844C5B2601CC4B2042CECDB314890F845
:108E60002A0028442F4981F82A0000240EE04FF4FC
:108E70001651684602F0D6FA012801D0122020E7E8
:108E80009DF8000006F8010B601CC4B2AC42EEDB9A
:108E9000012F12D1234890F82A00401E2149891C35
:108EA000095C204890F83C2090F83C00401C1D4B89
:108EB00083F83C0003F12D008154002FAAD1002437
:108EC0000FE04FF41651684602F0ACFA012801D0C9
:108ED0001220F6E69DF80010124816300155601C6D
:108EE000C4B2104890F82B00A042EADC0E4800788B
:108EF00000EB40000D4901EBC000407868B14FF431
:108F00001651684602F08EFA012801D01220D8E6E8
:108F10009DF80000034981F82C000020D1E60000F4
:108F2000003801407412002051000020B4120020CB
:108F3000F8B500200090002700222821A04802F068
:108F4000DAFD002260219E4802F0D5FD9C4802F027
:108F500047FE4FF42071684602F0ECFB012801D077
:108F60001220F8BD01222821954802F0C4FD0122FB
:108F70006021934802F0BFFD9DF800009149087000
:108F8000084600783B2807D18F49097801EB410159
:108F90008E4A02F831000EE08A480078032808D192
:108FA0003F208949097801EB4101884A02F83100E4
:108FB00001E01620D5E74FF41651684602F0BAFBDF
:108FC000012801D01220CCE79DF800007D494870AF
:108FD0000846407800F00F0081F82B00002081F84F
:108FE0002A008E1C81F83C000846407800F0800082
:108FF000802800D10127002500240BE0714840782B
:1090000000F0F000211D084100F001002844C5B225
:10901000601CC4B2042CF1DB6A4890F82A00284492
:10902000684981F82A0000240EE04FF41651684682
:1090300002F080FB012801D0122092E79DF8000089
:1090400006F8010B601CC4B2AC42EEDB5D48407810
:1090500010F0800F24D05B4890F82A00401E594938
:10906000891C085C00F00F005749097801EB4101A9
:10907000564A02EBC1014870524890F82A00401E3F
:109080005049891C095C4F4890F83C2090F83C00FE
:10909000401C4C4B83F83C0003F12D00815408E048
:1090A00000204949097801EB4101484A02EBC1011E
:1090B000487052E0434890F82A00401E4149891CFC
:1090C000085C00F08000802801D1012700E0002723
:1090D0000025002410E03B4890F82A00401E394942
:1090E000891C085C00F0F000211D084100F001001F
:1090F0002844C5B2601CC4B2042CECDB314890F8A3
:109100002A0028442F4981F82A0000240EE04FF459
:109110001651684602F00EFB012801D0122020E70C
:109120009DF8000006F8010B601CC4B2AC42EEDBF7
:10913000012F12D1234890F82A00401E2149891C92
:10914000095C204890F83C2090F83C00401C1D4BE6
:1091500083F83C0003F12D008154002FAAD1002494
:109160000FE04FF41651684602F0E4FA012801D0EE
:109170001220F6E69DF80010124816300155601CCA
:10918000C4B2104890F82B00A042EADC0E480078E8
:1091900000EB40000D4901EBC000407868B14FF48E
:1091A0001651684602F0C6FA012801D01220D8E60E
:1091B0009DF80000034981F82C000020D1E6000052
:1091C000004400407412002051000020B41200201E
:1091D000F8B500200090002700222821A04802F0C6
:1091E0008AFC002260219E4802F085FC9C4802F027
:1091F000F7FC4FF42071684602F03CFB012801D0D7
:109200001220F8BD01222821954802F074FC0122A9
:109210006021934802F06FFC9DF8000091490870AE
:10922000084600783B2807D18F49097801EB4101B6
:109230008E4A02F831000EE08A480078032808D1EF
:109240003F208949097801EB4101884A02F8310041
:1092500001E01620D5E74FF41651684602F00AFBEC
:10926000012801D01220CCE79DF800007D4948700C
:109270000846407800F00F0081F82B00002081F8AC
:109280002A008E1C81F83C000846407800F08000DF
:10929000802800D10127002500240BE07148407888
:1092A00000F0F000211D084100F001002844C5B283
:1092B000601CC4B2042CF1DB6A4890F82A002844F0
:1092C000684981F82A0000240EE04FF416516846E0
:1092D00002F0D0FA012801D0122092E79DF8000098
:1092E00006F8010B601CC4B2AC42EEDB5D4840786E
:1092F00010F0800F24D05B4890F82A00401E594996
:10930000891C085C00F00F005749097801EB410106
:10931000564A02EBC1014870524890F82A00401E9C
:109320005049891C095C4F4890F83C2090F83C005B
:10933000401C4C4B83F83C0003F12D00815408E0A5
:1093400000204949097801EB4101484A02EBC1017B
:10935000487052E0434890F82A00401E4149891C59
:10936000085C00F08000802801D1012700E0002780
:109370000025002410E03B4890F82A00401E39499F
:10938000891C085C00F0F000211D084100F001007C
:109390002844C5B2601CC4B2042CECDB314890F800
:1093A0002A0028442F4981F82A0000240EE04FF4B7
:1093B0001651684602F05EFA012801D0122020E71B
:1093C0009DF8000006F8010B601CC4B2AC42EEDB55
:1093D000012F12D1234890F82A00401E2149891CF0
:1093E000095C204890F83C2090F83C00401C1D4B44
:1093F00083F83C0003F12D008154002FAAD10024F2
:109400000FE04FF41651684602F034FA012801D0FB
:109410001220F6E69DF80010124816300155601C27
:10942000C4B2104890F82B00A042EADC0E48007845
:1094300000EB40000D4901EBC000407868B14FF4EB
:109440001651684602F016FA012801D01220D8E61B
:109450009DF80000034981F82C000020D1E60000AF
:10946000004800407412002051000020B412002077
:1094700070B504462078012806D0022811D00328B0
:1094800037D0052837D135E0002000F0F9F8002565
:1094900001E0681C85B2B5F5C87FFADB02202070B8
:1094A0002CE0012000F0ECF815480078012807D1E5
:1094B000FFF7EEFB10B90320207001E005202070BB
:1094C0000F480078022807D1FFF732FD10B90320BA
:1094D000207001E00520207009480078032807D19A
:1094E000FFF776FE10B90320207001E00520207000
:1094F00004E003E002E00520207000BF00BF70BD63
:109500005100002070B504460025207806285ED260
:10951000DFE800F003085D1F595A00F061F80120F0
:10952000207057E002E02046FFF7A2FF20780528D0
:1095300002D020780328F6D12078052808D11620FB
:109540002549097801EB4101244A02EBC101087465
:1095500040E000F06BFC05464DBB1F48007800EB77
:1095600040001E4901EBC000407840B11A48007825
:1095700000EB400001EBC000407801280BD1042033
:10958000207000201449097801EB4101134A02EBD5
:10959000C101087416E00520207016200E490978D4
:1095A00001EB41010D4A02EBC10108740AE00520FC
:1095B000207016200849097801EB4101074A02EBA7
:1095C000C101087406E005E0FBF77AFD02E0052022
:1095D000207000BF00BF70BD51000020B4120020F9
:1095E00010B500F0FFFB1B48007800F061F9012086
:1095F00000F034F8012000F043F80020164908700C
:109600004870002405E000211348801C0155601CAF
:10961000C4B2142CF7DB002405E000210E481630FC
:109620000155601CC4B2142CF7DB002405E00021B6
:1096300009482D300155601CC4B20F2CF7DB002007
:10964000054981F82A0081F82B0081F83C0081F857
:109650002C0010BD510000207412002010B50446EB
:109660002CB14FF480410548FCF7A9FE04E04FF40B
:1096700080410248FCF7A5FE10BD0000000C01402F
:1096800010B504460E480078012804D122468021F6
:109690000C48FCF798FE0A480078022804D12246BC
:1096A00008210948FCF78FFE05480078032805D1FA
:1096B00022464FF400510548FCF785FE10BD00001E
:1096C000510000200010014000080140000C014042
:1096D0002DE9F04104460D4616461F460020054977
:1096E00008703B4632462946204600F005F8BDE8A2
:1096F000F0810000C50200202DE9F04707468846AA
:1097000016461C464FF000094046FEF77DFB381117
:10971000022806D003280ED0042816D0052828D108
:109720001DE0BA205C49097801EB41015B4A02EB7C
:10973000C101486028E05D205749097801EB4101EB
:10974000564A02EBC10148601EE02E2052490978BA
:1097500001EB4101514A02EBC101486014E01F20B6
:109760004D49097801EB41014C4A02EBC1014860C7
:109770000AE04FF4BA704849097801EB4101474AC1
:1097800002EBC101486000BF00BF4349097801EB0B
:109790004101424A02EBC101898888B201F02CFBE9
:1097A00000203F49087002E03D48FFF7ABFE3C480F
:1097B0000078042803D03A4800780528F4D13848C6
:1097C0000078052840D0374890F82B00801C354998
:1097D00091F82A10084430803248007804F8010BD0
:1097E0003048407804F8010B002506E02D48801C25
:1097F000405D04F8010B681C85B22A4890F82A00E5
:10980000A842F3DC002506E026481630405D04F847
:10981000010B681C85B2234890F82B00A842F3DCAA
:109820001D48007800EB40001C4901EBC000407867
:1098300038B11C4890F82C0004F8010B3088401C0B
:1098400030800020184908701348007800EB400071
:10985000124901EBC000407CC0EB001080011349AD
:10986000086000250BE04FF0000903E009F101005A
:109870001FFA80F9B9F57A7FF8DB681C85B2B5F577
:10988000FA7FF0DB0448007800EB4000034901EB6D
:10989000C000007CBDE8F08751000020B412002019
:1098A000C402002074120020DE020020D00200203A
:1098B00010B588B00446012C7ED101211420FEF79A
:1098C00037FC8020ADF81C0002208DF81E0010200F
:1098D0008DF81F0007A9F748FCF7A6FC8021F54882
:1098E000FCF76FFDF448007818B901218803FEF7F2
:1098F0001FFC4FF48070ADF81C0018208DF81F007D
:1099000003208DF81E0007A9EC48FCF78DFC4FF4EE
:109910000070ADF81C001C208DF81F0007A9E74857
:10992000FCF782FC0A21E64802F06BF9E548007872
:109930000B38C1B2E24802F05CF94FF40060ADF8B8
:1099400004000020ADF80600ADF808004FF4807068
:10995000ADF80A0001A9DA4802F02BF8DA480078DD
:1099600000EB4000D94901EBC0008068D84948436A
:10997000D549097801EB4101D44A02EBC10149689C
:10998000B0FBF1F003904FF48050ADF810004FF4AD
:109990004050ADF812004FF48060ADF814000C2078
:1099A000ADF816000020ADF8180003A9C44802F075
:1099B000C7F8C548007800E031E000EB4000C3493B
:1099C00001EBC000407850B901222821BC4802F0C8
:1099D00092F801226021BA4802F08DF813E0BA48EB
:1099E000007800EB4000B94901EBC0004078012845
:1099F00009D100222821B24802F07DF8002260211E
:109A0000AF4802F078F80121AD4801F0E3FF0121F1
:109A1000AB4802F00AF90121A94802F0FAF8022C39
:109A20007ED101210420FEF783FB0820ADF81C0045
:109A300002208DF81E0010208DF81F0007A99F48F6
:109A4000FCF7F2FB08219D48FCF7BBFC9A48007824
:109A500018B901214804FEF74BFB1020ADF81C009B
:109A600018208DF81F0003208DF81E0007A99348C9
:109A7000FCF7DAFB0420ADF81C001C208DF81F0059
:109A800007A98E48FCF7D0FB0521924802F0B9F8EF
:109A90008C4800780B38C1B28E4802F0AAF84FF417
:109AA0000060ADF804000020ADF80600ADF8080035
:109AB0004FF48070ADF80A0001A9864801F079FFE3
:109AC0008148007800EB4000804901EBC0008068CD
:109AD0007F4948437C49097801EB41017B4A02EB0D
